:100000000C946C040C9489040C9489040C94890459
:100010000C9489040C9489040C9489040C9489042C
:100020000C9489040C9489040C9401280C94BD2729
:100030000C94FE280C9489040C9489040C94890473
:100040000C9489040C9489040C9489040C948904FC
:100050000C9489040C94DA280C9489040C94890477
:100060000C9489040C9489040C9489040C948904DC
:100070000C9489040C9489040C9489040C948904CC
:100080000C9489040C9489040C9489040C948904BC
:100090000C9489040C9489040C9489040C948904AC
:1000A0000C9489040C9489040C94890405010902B8
:1000B000A10185020901A100050919012905150001
:1000C00025019505750181029501750381010501E1
:1000D000093009311581257F950275088106093897
:1000E0001581257F950175088106050C0A380215D2
:1000F00081257F950175088106C0C005010980A191
:1001000001850319012AB700150126B7009501756D
:10011000108100C0050C0901A101850419012AA064
:1001200002150126A002950175108100C005010984
:1001300006A1018506050719E029E71500250195A7
:1001400008750181020507190029EF1500250195A1
:10015000F0750181020508190129059505750191C0
:1001600002950175039101C00660FF0961A10109B3
:1001700062150026FF0095207508810209631500AD
:1001800026FF00952075089102C005010906A1010E
:10019000050719E029E71500250195087501810279
:1001A0009501750881010507190029FF150026FF33
:1001B0000095067508810005081901290595057542
:1001C000019102950175039101C0FD377A585A00DB
:1001D0000004E6D6B4460200210116000000742F88
:1001E000E5A3E0050401DB5D003D8889C65436C304
:1001F000174FE4DE888EB7A69979D0220444F26CBA
:10020000421D969FFC581CCAC995295874F1353C6B
:10021000B26F555F66714359809F0AF40677E5E433
:1002200002AA651B50AE3A1E5AB582BFCC5E105A68
:10023000C7F28D513F8661BB946D65CAD6419FBBA5
:10024000388B979E668CF50F2C97255C596725CEC9
:1002500035A385E5F382D2C6ABE2A693CB7335AF67
:10026000CE57A1BD7601141F00B1273D92ACA8EA7C
:100270003B79752A9710604DF179B2D6F5CAD187CE
:10028000AB86B0F4027E1A55F126C8844E97DACEBA
:10029000A5CB1D466D8F16F4DBF81077AB0F51C060
:1002A0003CC5D19062F7AB52EF3B0AF3E4A5167060
:1002B000163EE7FC1BA75DC38D3824DCD31B4BE542
:1002C0008399C09B6799650E6BA5EA5EA8E53C6AB9
:1002D00005E9F40ACA2A9593558E34208579ADB67E
:1002E00094313DEDC60F1615D7EC497ED28877D0F4
:1002F0002699BC2DB2480ED2752675B44B92F7459F
:1003000027872F189A611D73A438022ABBE0A7C45F
:10031000496A7A252C217748718DDDA5A9AE9828E8
:100320009B28C64F7ABC756541C6B7A4AA4C4958EC
:10033000DFF8D2E27E88976C19870349DA956D164B
:100340008EAE1AE9F0D98356DAAE73A41A308D8BCB
:10035000A6AB1DE81E0CAE5AC39DB98622FD6DD01A
:100360007CD245429D9676DC66F679BD76AE33D575
:100370000C60A8F9D918254446ADBCE9F7EC34E780
:10038000835E77B97CB13746A66A0ECE5E5176B4ED
:10039000C4D1D35171B112C3EE86FF1EE6F341D032
:1003A0001A71E157ACBF72A36A7C95CCC8A6A5C3ED
:1003B0003228433A21FE1EF9F4E985F69A9F590343
:1003C000F4CAC3000000B3FBD8EB29F5DF0A000133
:1003D000F703850A00007344725BB1C467FB020037
:1003E00000000004595A000101010101010101014D
:1003F00002020202020202020203030303030303D6
:1004000003040404040404040505050505060606A2
:100410000606070707070708080808090909090A5F
:100420000A0A0B0B0B0C0C0C0D0D0D0E0E0E0F0F04
:100430000F10101111111212131314141515161692
:100440001717181819191A1A1B1B1C1D1D1E1E1F01
:100450002020212222232424252626272829292A50
:100460002B2C2D2D2E2F3031323233343536373878
:10047000393A3B3C3D3E3F40414243444546474874
:10048000494A4C4D4E4F50515354555658595A5B4A
:100490005D5E5F616264656668696B6C6D6F7072EA
:1004A000737577787A7B7D7E8082838587888A8C56
:1004B0008E8F91939596989A9C9EA0A2A3A5A7A98A
:1004C000ABADAFB1B3B5B7BABCBEC0C2C4C6C9CB81
:1004D000CDCFD1D4D6D8DBDDDFE2E4E7E9EBEEF037
:1004E000F3F5F8FAFDFF29001E001F00200021008F
:1004F0002200230024002500260027002D002E00C6
:100500002A0000004C002B0014001A0008001500FF
:10051000170000001C0018000C00120013002F0030
:10052000300031004B0039000400160007000900BC
:100530000A0000000B000D000E000F003300340015
:10054000280000004E00E1001D001B0006001900FD
:100550000500000011001000360037003800E500EB
:10056000000052000000E0000000E2002C0000004B
:10057000000001512C0000000000E600AA00A900C4
:10058000500051004F0035023A003B003C003D0056
:100590003E003F004000410042004300440045004F
:1005A000005C0000460001000100010001000100A4
:1005B0000100000001000100010001000100C75C12
:1005C000C85CC25CC55C01000100010001000100C3
:1005D0000100000001000100010001000100010014
:1005E00001000000C65C01000100010001000100E3
:1005F00001000000010001000100010001000100F4
:100600000000C95C000001000000010001000000C2
:1006100000000100010000000000C35C01000100B7
:100620000100CA5C0100010001000100010001009D
:1006300001000100010001000100010001000100B2
:1006400001000000010001000100010001000100A3
:100650000100000001000100010001000100010093
:100660000100010001000100010001000100010082
:100670000100000001000100010001000100010073
:100680000100000001000100010001000100010063
:100690000100000001000100010001000100010053
:1006A0000000010000000100000001000100000046
:1006B0000000010001000000000001000100010035
:1006C0000100010001000100010001000100010022
:1006D0000100010001000100010001000100010012
:1006E0000100000001000100010001000100010003
:1006F00001000000010001000100010001000100F3
:1007000001000100010001000100010001000100E1
:1007100001000000010001000100010001000100D2
:1007200001000000010001000100010001000100C2
:1007300001000000010001000100010001000100B2
:1007400000000100000001000000010001000000A5
:100750000000010001000000000001000100010094
:1007600001000100010009025B00030100A0FA0979
:1007700004000001030101000921110100012240D0
:1007800000070581030800010904010002030000BD
:100790000009211101000122220007058203200027
:1007A0000107050303200001090402000103000002
:1007B0000009211101000122BC000705840320006B
:1007C000011201000200000008EDEC633600010197
:1007D0000203011C037600690061006C003A0066A8
:1007E0000036003400630032006200330063000012
:1007F000001A03460061006E006300790041006C3E
:1008000000690063006500360036000000140346EE
:100810000061006E00630079007400650063006889
:1008200000000004030904000000000000000000B4
:1008300000000000000000000000000000000000B8
:1008400000000000000000000000007E0F00D4FF48
:10085000FFFFC70000007800000000000000002A31
:100860002B28000000000000000000000000000035
:10087000000029000000002C1E34202122243426F0
:1008800027252E362D3738271E1F202122232425E9
:10089000263333362E37381F0405060708090A0B9E
:1008A0000C0D0E0F101112131415161718191A1B10
:1008B0001C1D2F3130232D350405060708090A0BAE
:1008C0000C0D0E0F101112131415161718191A1BF0
:1008D0001C1D2F3130354C0011241FBECFEFDAE044
:1008E000DEBFCDBF25E0A4EDB2E001C01D92AF3266
:1008F000B207E1F712E0A0E0B1E0E8EDF3E602C0F4
:1009000005900D92A43DB107D9F70E9425290C94BA
:10091000A8310C940000E8EDF0E080818E7F8083A8
:100920001092E2001092DA001092E100A0EEB0E026
:100930008C9181608C9380818F77808319BCA7ED27
:10094000B0E08C918E7F8C9380818F7E808310921B
:10095000EE0408952091E4003091E50095E6A901A8
:100960002091EC00822F817020FF06C08091E8006A
:1009700080FF06C080E008952091E80022FD1AC0A3
:1009800080911305882389F0853089F08091EB00F0
:1009900085FD0FC02091E4003091E5004217530718
:1009A000F9F29150E1F684E0089582E0089583E041
:1009B000089581E00895EF92FF920F931F93CF93D4
:1009C0007C018B010E94AA04C82F811117C080915D
:1009D000E80085FD0BC08091E8008E778093E800E9
:1009E0000E94AA04882399F3C82F08C0F7018191B7
:1009F0007F018093F1000150110949F78C2FCF91AD
:100A00001F910F91FF90EF9008958091150587FF3A
:100A100013C08091E80082FF06C08091E8008B77C8
:100A20008093E80004C0809113058111F2CF0895EE
:100A3000809113058823D9F38091E80080FFF8CFD7
:100A40008091E8008E77ECCF982F9093E900242FC7
:100A5000762F50E0891731F07091EC002091ED0075
:100A60005091F00021FD07C09F5F973071F7809390
:100A7000E90081E008953091EB003E7F3093EB0078
:100A80003091ED003D7F3093ED003091EB0031600F
:100A90003093EB007093EC002093ED005093F00046
:100AA0002091EE0027FDE0CF80E00895B0E0A0E0C7
:100AB000ECE5F5E00C94222FC8EDD0E088818F7E24
:100AC0008883E7EDF0E080818160808384E082BFED
:100AD00081E08093EE0488818E7F888302EE10E0AF
:100AE000F80110821092DA0081EEC82ED12CF601A6
:100AF000108288818F778883888180688883888145
:100B00008F7D888319BC10921305109214051092E2
:100B100012051092110590EEE92EF12CF70180815B
:100B20008B7F808388818160888342E060E080E001
:100B30000E942405F60180818E7F8083F8018081E8
:100B400081608083808188608083F70180818E7FCF
:100B50008083888180618883CDB7DEB7E8E00C941C
:100B60003E2FFC0180911B0590911C05861797076D
:100B7000A0F06115710529F49091E8009E7790939B
:100B8000E80090E06115710551F4911108C0809161
:100B9000E80082FF34C080E00895BC01F2CF80916C
:100BA00013058823C1F18530C1F18091E80083FDF0
:100BB00030C08091E80082FDEACF8091E80080FF9C
:100BC000E1CF8091F3002091F200382F611571057B
:100BD00019F02830310558F091E02830310509F03E
:100BE00090E02091E8002E772093E800CBCF819110
:100BF0008093F100615071092F5F3F4FE7CF8091E3
:100C00001305882341F0853041F08091E80083FF8F
:100C1000BECF81E0089582E0089583E008950895AD
:100C20008091F004089587E797E7909301088093F7
:100C3000000888E19AE00FB6F894A89580936000C8
:100C40000FBE90936000FFCF9C014FB7F894809146
:100C5000E5049091E604A091E704B091E8044FBF49
:100C6000821B930B08952FB7F8946091E50470915F
:100C7000E6048091E7049091E8042FBF08952FB710
:100C8000F8948091E5049091E604A091E704B09176
:100C9000E8042FBF089520911D012223C9F020915F
:100CA000E90427FF15C0E62FE695E695E695EE31B7
:100CB000D8F4E80FF92FF11D677021E030E001C092
:100CC000220F6A95EAF720958281282322830895CE
:100CD000FC01329608962191621303C0DF0111973F
:100CE0001C92E817F907B9F7089520911D012223F6
:100CF000C1F02091E90427FF14C0E62FE695E695A0
:100D0000E695EE31F8F4E80FF92FF11D677021E058
:100D100030E001C0220F6A95EAF78281822B82833C
:100D20000895FC0132962FEF30E04191641751F0A5
:100D30002F3F19F4411101C0232F3F5F3630A9F72F
:100D40002F3F09F40895820F911D27FD9A95FC010C
:100D5000628308952091E2043091E3042817390753
:100D600071F09093E3048093E204E091E004F09149
:100D7000E104309721F00084F185E02D0995089574
:100D80002091DE043091DF042817390771F0909329
:100D9000DF048093DE04E091E004F091E1043097F9
:100DA00021F00680F781E02D09950895E091E00497
:100DB000F091E104309729F00190F081E02D099540
:100DC000089580E00895FA01811101C0FB010995A1
:100DD0000895E4EEF3E0818360834283339694E0E8
:100DE000EA3DF907C1F70895FC01EE0FFF1FE80F78
:100DF000F91FEC51FC4F6183408322830895E1E2A7
:100E0000F5E0248130E1231B08F420E02483809165
:100E1000E30381608093E3030895E1E2F5E0248138
:100E200030E1230F08F42FEF24838091E3038160E6
:100E30008093E303089590912105937071F080935E
:100E4000220560932305493C08F048EC40932405B3
:100E50008091E303822B8093E3030895E1E2F5E0C0
:100E6000438120E1421B08F440E0818121E062815E
:100E700090E00E941B070895E1E2F5E0438120E144
:100E8000420F08F44FEF818121E0628190E00E94DF
:100E90001B070895E1E2F5E0628120E1621B08F49E
:100EA00060E0818121E0438190E00E941B0708956A
:100EB000E1E2F5E0628120E1620F08F46FEF8181E9
:100EC00021E0438190E00E941B070895E1E2F5E0F4
:100ED000818121E0438162818850990B0E941B0728
:100EE0000895E1E2F5E0818190E021E043816281B3
:100EF00008960E941B07089590912105937061F058
:100F000081110BC094609093210510921A01809179
:100F1000E303862B8093E30308958E3110F09467EA
:100F2000F2CF880F880F982BEECF80912105869500
:100F30008695815009F48DE161E00E947C07089557
:100F400080912105869586958F5F8E3108F081E02E
:100F500061E00E947C070895E42FF0E0EE0FFF1F90
:100F6000E352FE4F9081921B97FD9195292F38E116
:100F7000239F212D1124620F08950F931F9310E0DA
:100F8000F801EE0FFF1FE352FE4F9081905797FD3F
:100F90009195000F111FF801E252FE4F008100529F
:100FA000110B2003F001219FF00D112408E310E044
:100FB000091B110997FD139540039001419F300DC6
:100FC0001124E20FF31F9F01220F331F2E0F3F1F2B
:100FD00037FF02C021583F4F220F232F221F330B10
:100FE000620F1F910F9108950F931F93522F10E0DE
:100FF000F801EE0FFF1FE252FE4FA081A052BB0B83
:101000009D015203F001539FF00D1124000F111F99
:10101000D801A352BE4F0C910057110B4003900111
:10102000419F300D11242E0F3F1F37FF02C0215C5E
:101030003F4F96E0359527959A95E1F7620F1F91FE
:101040000F9108950F931F93522F10E0F801EE0FA8
:10105000FF1FE252FE4FA081A052BB0B9D01520325
:10106000F001539FF00D1124000F111FD801A3525E
:10107000BE4F0C910057110B40039001419F300D62
:1010800011242E0F3F1F37FF02C021583F4F220F60
:10109000232F221F330B620F1F910F910895EF92A0
:1010A0000F93972F23E0029FB00111247595679548
:1010B0006E0D792F0F91EF900895322F50E0FA01C5
:1010C000EE0FFF1FE252FE4F9081905297FD9195D7
:1010D000440F551FFA01E352FE4F2081231B330BAF
:1010E000290F311D97FD3A95620F0895E42FF0E026
:1010F000EE0FFF1FE252FE4F6081621B0895E42F46
:10110000F0E0EE0FFF1FE352FE4F6081621B089577
:10111000622F0895E42FF0E0EE0FFF1FE352FE4F21
:10112000408134EE439F412D1124E82FF0E050E040
:10113000445E5F4FDA01A21BB1099D01B7FF03C0F6
:1011400031952195310993E0220F331F9A95E1F7EC
:10115000AF01421B530B9A0157FD20E0582F259FEA
:10116000212D1124822F0895E42FF0E0EE0FFF1FB0
:10117000E352FE4F408134EE439F412D1124E72F6F
:10118000F0E050E0445E5F4FDA01A21BB1099D011F
:10119000B7FF03C031952195310993E0220F331F2A
:1011A0009A95E1F7AF01421B530B9A0157FD20E0DE
:1011B000279F212D1124722F08950E94E90608957A
:1011C0000E94F4060895FC019B01009729F480E039
:1011D00077FF2BC080E80895AC0197FF04C0442737
:1011E0005527481B590BB901640F751F37FD10C0F7
:1011F000241B350BC901A5E0880F991FAA95E1F7BB
:101200000E94F72E80E2861BF7FF0FC0819508959C
:10121000CB0165E0880F991F6A95E1F7BA01621B5F
:10122000730B0E94F72E80E6EECF0895EF920F9396
:10123000CF93DF93D72FC82FC9010E19BA010E948F
:10124000E308602F681B7D2F8C2FDF91CF910F91CA
:10125000EF9008950F93CF93DF93D72FC82FC90135
:10126000BA010E94E308682F600F7D2F8C2FDF9159
:10127000CF910F910895EF920F931F93CF93DF9328
:10128000D62FC72F182FC9010E19010FBA010E94BE
:10129000E308081B202F219F212D1124822F6D2F61
:1012A0007C2FDF91CF911F910F91EF900895EF92D6
:1012B0000F931F93CF93DF93D62F172FC82FC901FA
:1012C0000E19070FBA010E94E308702F781B719F57
:1012D000712D11246D2F8C2FDF91CF911F910F91C4
:1012E000EF9008950F931F93CF93DF93D62FC72FBF
:1012F000182FC901212F201B022FBA010E94E308D9
:10130000982F990F990F891B800F282F219F212D2E
:101310001124822F6D2F7C2FDF91CF911F910F9180
:1013200008950F931F93CF93DF93D62F172FC82FB6
:10133000C901272F201B022FBA010E94E308982F12
:10134000990F990F782F791B700F719F712D1124B0
:101350006D2F8C2FDF91CF911F910F910895E82F62
:1013600086FDE0952E2F2F7086FD2F5FE695E69582
:10137000E695E670F0E0EA58FE4F9181929F902D3D
:10138000212D112492959F702295207F922B2081F0
:10139000920F87FD919580E8890F08950F931F9311
:1013A000CF93DF938B01D82FC42F822F0E94AF09D8
:1013B000EC2FF0E0EE0FFF1FE352FE4F90819058AC
:1013C000890F87FD8195880F682F2CE0629F612D22
:1013D0001124600F712F8D2FDF91CF911F910F91ED
:1013E0000895409116015091170125E038E0429F81
:1013F000C001439F900D529F900D1124875E994C20
:101400009093170180931601890F0895AC018230E3
:10141000910508F408959FEF413E8EE1580740F48E
:101420009A0195E0369527959A95E1F798E0920F05
:1014300061E0E62FE90FFF27FF1F9F0135952795F4
:10144000822F229FF001239FF00DF00D11244E17E3
:101450005F0738F49FEF920F961758F78FEF860FBC
:1014600008952F3FE9F361E0620FF6CF0F93CF931A
:10147000DF93D72FC82F47FD419588E390E0841B69
:10148000910947FD9395889FB001899F700D700D5C
:101490001124229FC001239F900D900D1124860FCF
:1014A000971F0E94060A982F990F890F682F600FC7
:1014B0007D2F8C2FDF91CF910F91089530E020E0A8
:1014C000869F212D969F200D311D1124C90108955D
:1014D000AF92BF92CF92DF92FF920F931F93CF9361
:1014E000DF93362F472FE82FF0E0EA51FC4F7111C0
:1014F0000FC0E4918E2F2E2F6E2F722FDF91CF9180
:101500001F910F91FF90DF90CF90BF90AF90089503
:10151000C72FD0E02491F22E022F10E056E0659FF5
:10152000C0011124EFEFF0E0BF010E94E32E832FF2
:1015300090E0880F991F35E5369FD001379FB00D99
:1015400011248A1B9B0B982F990F980F6F01CC1AAF
:10155000DD0AC09ED001C19EB00DD09EB00D1124F9
:101560008B2F499FA0011124452F55276F01C41AC5
:10157000D50AC09EA001C19E500DD09E500D1124D1
:101580005F01A91AB108AC9E6001AD9ED00CBC9E53
:10159000D00C1124CD2CDD24EC19FD09E09FE001D5
:1015A000E19FD00DF09FD00D1124ED2F6230710519
:1015B000A1F050F46115710509F49ECF61307105F9
:1015C00081F0EB2F852F98CF6430710569F080F0A2
:1015D0006630710509F490CFF4CFE22F2B2F8D2FB9
:1015E0008BCFE22F252F88CFEB2F822F2D2F84CF6B
:1015F0002B2F8F2DE52F80CFB0E0A0E0E2E0FBE0C5
:101600000C94232F8C01FC01EF57FD4F8081682340
:1016100049F1D0902305D0912405C0912205EC2EEC
:10162000F12C0E94F109282FC7018C549F4F68E6C6
:1016300071E00E94F72E8E199F0997FD03969595EC
:1016400087959595879523706C2F289F600D1124A1
:101650007D2D8D2F0E94680A462F282F672FC801E5
:101660000E94E008CDB7DEB7E7E00C943F2FB0E072
:10167000A0E0EDE3FBE00C94232F7C01C0911E0160
:1016800081E1C89FC02D112411E11C0F012F1335DA
:1016900008F002E5609125056695669521E0620FE8
:1016A00008F46FEF80911D0590911E050E945E0A5F
:1016B000D82ED0E0C01748F081E0123508F080E065
:1016C000CDB7DEB7E7E00C943F2FFE01EF57FD4F9B
:1016D000808190911F01892391F060912205709182
:1016E0002305809124052D2D4C2FF70109950E948B
:1016F000680A462F282F672FCE010E94E008219606
:10170000D9CFB0E0A0E0E7E8FBE00C941F2F6C011C
:10171000C0911E0181E1C89FC02D112411E11C0F51
:10172000B12E133510F032E5B32E60912505669584
:10173000669580911D0590911E050E945E0AF82E07
:1017400080E48F0D0E94AF0990E8A92EA80E8F2D7E
:101750000E94AF0920E8922E980ED0E0CB1548F0F9
:1017600081E0123508F080E0CDB7DEB7EBE00C94F5
:101770003B2FFE01EF57FD4F808190911F01892380
:10178000A1F0609122057091230580912405EF2C32
:101790000C2F292D4A2DF60109950E94680A462F23
:1017A000282F672FCE010E94E0082196D7CFB0E006
:1017B000A0E0EDEDFBE00C941D2F5C01C0911E013B
:1017C00081E1C89FC02D112411E11C0FF12E1335AA
:1017D00010F032E5F32E60912505669580911D0588
:1017E00090911E050E945E0A782ED0E0CF1548F039
:1017F00081E0123508F080E0CDB7DEB7EDE00C9463
:10180000392FFE01EF57FD4F808190911F018923F1
:10181000C9F1CE01880F991F83579E4FFC01E05BF1
:10182000FF4F2081422F4057550B6A018F5A9F4F1F
:10183000FC018081282F2052330B4901449F9001E5
:10184000459F300D300D1124889CC001899C900D5E
:10185000900D1124820F931F0E94060A082F609199
:1018600022057091230580912405E72C9401A6019F
:10187000F50109950E94680A462F282F672FCE018F
:101880000E94E0082196B2CFB0E0A0E0EAE4FCE0DC
:101890000C94222F7C01C0911E0181E1C89FC02DB4
:1018A000112411E11C0FD12E133510F032E5D32E87
:1018B00060912505669580911D0590911E050E94F9
:1018C0005E0AC82ED0E0CD1548F081E0123508F050
:1018D00080E0CDB7DEB7E8E00C943E2FFE01EF5775
:1018E000FD4F808190911F01892311F1CE01880F56
:1018F000991F83579E4FFC01EF5AFF4F20812052C2
:10190000330B805B9F4FFC0140814057550B60912A
:10191000220570912305809124050C2DF70109956E
:101920000E94680A462F282F672FCE010E94E008E8
:101930002196C9CF0E943F069C019091AB038091F4
:10194000AC03982B21F03093A8032093A703909128
:10195000AD038091AE03982B21F03093A603209322
:10196000A503E091E004F091E104309749F082E0B2
:101970008093A9030480F581E02D89EA93E009951D
:1019800008959091AB03803F59F48091AC0387FF99
:101990000DC01092AC0391110BC01092A30308C0AC
:1019A000813F81F48091AC0318169CF3992381F058
:1019B0008091AD039091AE03892B09F064C0109221
:1019C000A2030895823F49F497FFF0CF1092AB0332
:1019D0008091AC038111ECCFE0CF833F19F419164D
:1019E000ACF3E4CF2091AD03893F29F41216F4F64D
:1019F0001092AD03DBCF8A3F19F427FFD7CFF8CF82
:101A00002091AE038B3F29F427FFD0CF1092AE0375
:101A1000CDCF8C3F19F41216CCF3C8CF843F31F4EC
:101A20008091AA038E7F8093AA03C0CF853F21F4C3
:101A30008091AA038D7FF7CF863F21F48091AA037E
:101A40008B7FF1CF873F21F48091AA03877FEBCF73
:101A5000883F21F48091AA038F7EE5CF8D3F31F43A
:101A60008091A4038E7F8093A403A0CF8E3F21F4A6
:101A70008091A4038D7FF7CF8F3F09F097CF80919E
:101A8000A4038B7FF0CF08958091A40380FD16C03E
:101A900081FD16C082FD16C08091A2038823A1F0AB
:101AA000883280F428E0829FC001112468E270E04F
:101AB0000E94F72E862F672B39F0089582E0089553
:101AC00084E0089588E0089581E008958091A4035A
:101AD00080FD14C081FD14C082FD16C08091A30357
:101AE000882381F08E3180F420E5829FC00111248B
:101AF0006EE170E00E94F72E862F089584E108952C
:101B000088E2089588E0089580E50895803F31F4E3
:101B10000E94660D81958093AC030895813F19F46E
:101B20000E94660DF8CF823F31F40E94660D8195C8
:101B30008093AB030895833F19F40E94660DF8CF9C
:101B4000893F29F40E94440D8093AD0308958A3F94
:101B500021F40E94440D8195F7CF8B3F31F40E9410
:101B6000440D81958093AE0308958C3F19F40E9433
:101B7000440DF8CF843F31F48091AA0381608093B3
:101B8000AA030895853F21F48091AA038260F7CFCC
:101B9000863F21F48091AA038460F1CF873F21F42E
:101BA0008091AA038860EBCF883F21F48091AA033B
:101BB0008061E5CF8D3F31F48091A40381608093F3
:101BC000A40308958E3F21F48091A4038260F7CF8F
:101BD0008F3FB9F78091A4038460F1CF80E008952E
:101BE000F894E82FE295EF70F0E031A1282F2F70E4
:101BF00081E090E001C0880F2A95EAF7982F909530
:101C0000932391A392A1892B82A378940895909114
:101C1000E90492FF06C0282F28712830F9F4877F45
:101C2000846093FF06C0282F28712831F1F4877E45
:101C300084612091EA0420FF06C0382F38713830C3
:101C4000D9F4877F816021FF06C0282F28712831B1
:101C5000D1F4877E816194FD877E0895282F2471B9
:101C60002430F9F68B7F8860DCCF282F2471243153
:101C700001F78B7E8861DDCF382F3171313019F754
:101C80008E7F8860E0CF282F2171213121F78E7E51
:101C90008861E1CFCF93DF93EC0182389105B1F1F8
:101CA00008F040C08133910509F49DC048F58932A0
:101CB000910509F48DC08A9709F49CC0C11521E5EE
:101CC000D20708F0C3C0C11530E5D30708F01EC124
:101CD000C83ED10508F0A3C0C13ED10588F5C83A79
:101CE000D10508F08EC0C53AD10508F007C1C13052
:101CF000D10531F1209721F1C430D10508F545C057
:101D00008533910509F45FC0C997C1F68091E90454
:101D1000837009F044C18091EA0483FF11C0C9E2D5
:101D2000D0E00EC0833E910599F170F4803E91059C
:101D300001F1823E910511F68091E90482FD21C0F6
:101D4000CE01DF91CF910895863E910561F1873EE6
:101D5000910571F1843E910509F0B0CF8091EA04BC
:101D600081FFEECF8091E904C7EED0E084FD0DC085
:101D7000E7CF8091E90480FD33C09091EA0490FFA1
:101D8000DFCFC3EED0E084FFDBCFD0E0C0E0D8CF20
:101D90008091E90482FD00C19091EA0490FDFFC0AA
:101DA00084FFCECFF2CF8091E90483FDDDCFC8CF91
:101DB0008091E90483FDF6C09091EA0491FFF0CF91
:101DC000C4EED0E0BDCF8091E90485FFB9CFA7CFA5
:101DD0008091E90485FDE9C08091EA0483FFB0CFDA
:101DE000C9E3D0E0ADCF8091E90486FFA9CFCAE274
:101DF000D0E0A6CF8091E90486FFA2CFC1E3D0E076
:101E00009FCFCF3BD10508F6C85AD0E0CC0FDD1FDD
:101E1000C15DDE4F0990D881C02DD46491CFC1152A
:101E200040E2D40758F4C11581E0D80708F088CF04
:101E3000C03FD10508F4A9CFD06582CFC11520E4F9
:101E4000D20708F4A2CFDF70D06A7ACFC11535E58A
:101E5000D30718F5C11544E5D40708F085C0C115AE
:101E600083E5D80708F06CC0C11522E5D20708F455
:101E700062C0CE018370992721E030E002C0220FBA
:101E8000331F8A95E2F7C695C69580E2C89FE001A8
:101E90001124C22BD32BDC6853CFC11539E5D307EE
:101EA000A8F4C11548E5D40708F063C0C11586E55C
:101EB000D80708F06ACF8C2F0E94070EC82FD0E0F9
:101EC000DC2FCC27CC27DF71D0623ACFC1152AE5B1
:101ED000D20708F453C0CE0190568115904208F005
:101EE00054CF8D2F8F710E94070E90E0982F882776
:101EF00088279F719C012C2BE901E6CFC55AD0E0C1
:101F0000C45DDE4FC881D0E0D0641ACF2C2F269557
:101F10002695237040E2249F900111248C2F83701A
:101F2000C1E0D0E002C0CC0FDD1F8A95E2F7C22BE2
:101F3000D32BDD6805CFDC2FCC27C16FD06A00CF53
:101F4000CE018370992721E030E002C0220F331FB9
:101F50008A95E2F7C695C69540E2C49FE001112438
:101F6000C22BD32BDA68ECCEDC2FCC27C46FD06A1F
:101F7000E7CEDC2FCC27C06FD06AE2CE8C2F8F70DB
:101F80000E94070E34E0D695C7953A95E1F7CF70D9
:101F90009C2FEC01D069D4CEC2EED0E0D1CEC0EE01
:101FA000D0E0CECEC6EED0E0CBCEC5E3D0E0C8CEFA
:101FB00080917503882331F0109275031092740399
:101FC00010927303089580959091720398239093D3
:101FD000720308951092500310924F0310924E0313
:101FE000089580914D0390911C03981301C00895AA
:101FF0008F5F8770FACF953080F5803170F540E1C2
:10200000949F90011124820F932F911D682F677068
:1020100023E0969587952A95E1F7FC01EE0FFF1FC7
:10202000E80FF91FE850FD4F50E040E080E02191BB
:1020300030E0062E02C0369527950A94E2F721700B
:102040003327042E01C0220F0A94EAF7822B4F5F38
:102050005F4F4330510559F7089580E0089595305A
:1020600098F5803188F540E1949F90011124820F0A
:10207000932F911D282F277041E001C0440F2A950E
:10208000EAF723E0969587952A95E1F7FC01EE0F94
:10209000FF1FE80FF91FE850FD4F90E080E070E06F
:1020A0005191DF0111979B01082E02C036952795AB
:1020B0000A94E2F7217021952527242325272C93C4
:1020C00001968330910561F708959C013A95211599
:1020D0003F4150F5FC01EE27F170BC01662772709C
:1020E000AC01442754709C012227387094FF0EC025
:1020F00080E1EF2B09F480E0672B09F08062452B2B
:1021000009F08064232B89F08068089581E0EF2B2B
:1021100009F480E0672B09F08260452B09F08460A8
:10212000232B19F08860089580E008958093EB04D4
:102130007093ED046093EC04809113058430F9F4FE
:102140008093E9008FEF9091E800815095FD06C0E3
:1021500095ED9A95F1F700008111F5CF8091E80097
:1021600085FF0DC050E040E063E070E08BEE94E04E
:102170000E94DB048091E8008E778093E800089548
:10218000BC0184E00E9496100895BC0183E00E9487
:10219000961008959C0184E08093E9009FEF809160
:1021A000E800915085FD06C085ED8A95F1F70000A5
:1021B0009111F5CF8091E80085FF0CC050E040E020
:1021C00066E070E0C9010E94DB048091E8008E7730
:1021D0008093E8000895CF93DF93EC0180911D0177
:1021E0008823B1F18091E90487FF32C060E284E086
:1021F0008093E9008FEF9091E800815095FD06C033
:1022000095ED9A95F1F700008111F5CF8091E800E6
:1022100085FF1BC080911D0170E050E040E08111FE
:1022200004C050E040E068E070E0CE010E94DB04B2
:102230008091E8008E778093E80080E2FE01A1EFB4
:10224000B4E001900D928A95E1F7DF91CF91089566
:1022500068E081E0CDCF209A35B13E7F25B1216085
:102260004FB7F89484EE93E0FC015191CF0168E000
:1022700025B9000000C057FF35B9550F000000C058
:1022800000C000C035B900C06A9591F7F4E08A3DFE
:102290009F0751F74FBF8FE594E00197F1F700C01A
:1022A00000000895CF93DF93C7E0D2E060E0CE0155
:1022B0000E9421312196C11584E0D807B9F7DF913A
:1022C000CF9108951F93CF93DF93122F8330E0F4C3
:1022D0006530D0F44031C0F490E2699FE0011124F0
:1022E00050E0440F551FC40FD51F90EA899FC00DC1
:1022F000D11D1124632FCE0187960E942131612FB9
:10230000CE0188960E942131DF91CF911F910895CF
:102310008F929F92AF92BF92CF92DF92EF92FF92F5
:102320001F93CF93DF9380901B0190901C0181E05D
:1023300090E090931C0180931B0186EEC82E84E0F0
:10234000D82ED0E07601C0E014C0F501259134917B
:10235000412F6C2F8D2F0E94621182E0A80EB11CBC
:102360001F5F103191F780E2E80EF11CCF5FC5309E
:1023700019F0570110E0E9CFDF5F80EAC80ED11CE9
:10238000D33001F790921C0180921B01DF91CF9115
:102390001F91FF90EF90DF90CF90BF90AF909F90F4
:1023A0008F900895CF93C82F6FEF811168E583E276
:1023B00090E00E9421316FEFC11166E584E290E068
:1023C0000E9421316FEFC1116CE985E290E00E941B
:1023D0002131CF91089580E00E94D21160E086E221
:1023E00090E00E9421310E9488110E94521181E0E8
:1023F0000E94D2110895CF93C92F682F84E090E0F6
:102400000E9421316C2F82E290E00E942131CF9115
:1024100008950F931F93CF93DF93833030F565308A
:1024200020F5403110F520E2629F8001112450E038
:10243000440F551F040F151F30EA839F000D111D17
:102440001124C80187960E940331C82FD0E0DC2FE9
:10245000CC27C80188960E9403319E01282BC90110
:10246000DF91CF911F910F91089590E080E0F8CF18
:10247000462F2091DC043091DD04232B99F4703F2A
:1024800039F4603F79F48091DA049091DB04089587
:10249000833040F4753030F4603120F4672F0E94AF
:1024A0000912089590E080E00895CF92DF92FF92A4
:1024B0000F931F93CF93DF936C0100912A058091B6
:1024C0007603082BC7E0D0E010E0FC2EC8010C2EEC
:1024D00002C0959587950A94E2F780FD0CC021977C
:1024E000A0F7F12C8F2DDF91CF911F910F91FF90CD
:1024F000DF90CF900895B6018C2F0E9438120E9471
:102500004A0E019761F3EECFCF93DF93EC010E9467
:102510005512BE010E9438120E944A0EDF91CF91DF
:102520000895FC0183819481892B29F08081918118
:1025300089238F3F51F480E00895843FE1F717C06D
:10254000883EA8F0813FB9F712C0808191810E9436
:10255000841292959F70963099F358F4925F9F7011
:10256000923048F7803F19F040F7883E20F781E02D
:1025700008959A5FF4CF83E290E00E94033188359A
:1025800089F484E290E00E940331863559F485E2B3
:1025900090E00E94033191E08C3909F090E0892F9E
:1025A0008170089580E0FCCFCF9384E090E00E949A
:1025B0000331C82F82E290E00E940331982F8C2FC4
:1025C000CF9108951F93CF93DF93EC01FC01EF5758
:1025D000FD4F80816823B1F00E949B2F182F0E942D
:1025E0009B2F8F77782F20E8720F08F47FEF612FF1
:1025F000809124050E94680A462F282F672FCE015C
:102600000E94E008DF91CF911F91089546E050E0CD
:102610006CE170E081E295E00E9411311092E303D9
:102620000895B0E0A0E0E7E1F3E10C941A2F0E94D6
:1026300033066093AF037093B0038093B10390931C
:10264000B20330912105132F137019F0132F169533
:10265000169520911A012130D9F0222359F0223009
:1026600009F4C7C3233009F4CEC3CDB7DEB7E0E128
:102670000C94362F10921E0160931D0570931E0559
:1026800080931F059093200581E080931A01EDCF80
:102690009091190181E019130BC0832F8370209151
:1026A000180130E091E08217130609F490E0892FB9
:1026B0008170809320018091260590911F019817C9
:1026C00039F080931F0140E060E080E00E94DD0867
:1026D0001E3150F4E12FF0E0E655FE4C0C940B2F28
:1026E00080912001811102C0C0E047C140E060E05C
:1026F00080E00E94DD08F8CFC0911E0181E1C89FF3
:10270000C02D112401E10C0FF02E033510F092E5DD
:10271000F92E6091220570912305809124050E9475
:10272000680AE62ED72EC82ED0E0CF1528F0C1E0DB
:10273000023508F422C1D8CFFE01EF57FD4F80814A
:1027400090911F01892331F02C2D4E2D6D2DCE013E
:102750000E94E0082196E9CFC0911E0181E1C89F47
:10276000C02D112401E10C0FF02E033510F082E58D
:10277000F82ED0902305E0902405D09122056D2FEE
:102780007D2D8E2D0E94680AC62EB72EA82E609130
:1027900025056D0F7D2D8E2D0E94680AE62ED72E01
:1027A000982ED0E0CF1518F6FE01EF57FD4F90811F
:1027B00080911F01892359F0292D4E2D6D2D90FDFB
:1027C00003C02A2D4C2D6B2DCE010E94E0082196CE
:1027D000E9CFC0911E0181E1C89FC02D112401E104
:1027E0000C0FE02E033510F0D2E5ED2ED09023052E
:1027F000C090240520912505B0E4FB2E3F2D329F8B
:10280000312D1124F32ED0E0CE1508F090CFFE012B
:10281000EF57FD4F808190911F018923B9F0FE0190
:10282000EE0FFF1FE252FE4F808182958F70609104
:1028300022058F9D600D11247D2D8C2D0E94680A2C
:10284000462F282F672FCE010E94E0082196DCCF6B
:10285000C0911E0181E1C89FC02D112401E10C0F20
:10286000E02E033510F072E5E72ED0902305C090DE
:1028700024052091250560E4F62E3F2D329F312D51
:102880001124F32ED0E0CE1508F051CFFE01EF5702
:10289000FD4F808190911F018923D9F0FE01EE0F39
:1028A000FF1FE352FE4F6081F69EB001112455E0F8
:1028B000759567955A95E1F780912205680F7D2DF2
:1028C0008C2D0E94680A462F282F672FCE010E9468
:1028D000E0082196D8CFC0911E0181E1C89FC02D8C
:1028E000112401E10C0FF02E033510F032E5F32E28
:1028F000E0902205D0912305D09024056091250514
:1029000066956695669580911D0590911E050E94BD
:102910005E0A0E94AF09805887FD8195880F282F95
:102920003D2D239F212D1124822F6E2D7D2F0E945E
:10293000680AE62ED72EC82ED0E0CF1508F0F7CEC5
:10294000FE01EF57FD4F808190911F01892331F0E7
:102950002C2D4E2D6D2DCE010E94E0082196EDCF3D
:1029600084EB98E00E94370B07C08AE898E0FACF22
:1029700081E999E00E94440CC82F80911E018F5F6D
:1029800080931E01C11131C282E080931A018091AF
:10299000200181112AC2112309F433C20E94D606F4
:1029A00081FF63CE2FEF4FEF6FEF8BE290E00E943D
:1029B000E0085BCE82E799E0DDCF87E599E00E94F1
:1029C000D70BDACF8BE399E0FACF88E898E0CACF4B
:1029D0008FE798E0C7CF86E798E0C4CF8DE598E011
:1029E000C1CF8FE498E0EBCF86E39AE0C3CF8AE2D1
:1029F00099E0C0CF86E199E0E2CF82E298E00E94C0
:102A0000810BBACF84EF97E0FACF8DEB97E0F7CF49
:102A1000C0911E0181E1C89FC02D112401E10C0F5E
:102A20008091200181111FC06091250520E1620F76
:102A300008F46FEF80911D0590911E050E945E0ABB
:102A40006AE070E00E94E32E892B09F070CE0E94AC
:102A5000F10962E50E94D72E60911F01892F90E055
:102A60000E94FC0A64CE802F033508F082E5D0E096
:102A7000E82EF12CCE15DF050CF059CE60911F0128
:102A8000CE010E94FC0A2196F5CFC0912001C11110
:102A90001EC06091250520E1620F08F46FEF809160
:102AA0001D0590911E050E945E0A65E070E00E947F
:102AB000E32E892B09F018CE0E949B2F62E570E06F
:102AC0000E94F72E60911F010E94E21256CFC09122
:102AD0001E0181E1C89FC02D112401E10C0F802F40
:102AE000033508F082E5D0E0E82EF12CCE15DF05A5
:102AF0000CF01DCE60911F01CE010E94E2122196C2
:102B0000F5CFC0911E0181E1C89FC02D112401E1C4
:102B10000C0FF02E033510F022E5F22ED090230595
:102B2000E0902405D0912205609125056695669573
:102B3000669580911D0590911E050E945E0A0E9477
:102B4000AF09805887FD8195880F682F2CE0629F20
:102B5000612D11246D0F7D2D8E2D0E94680AE62EA9
:102B6000D72EC82ED0E0CF1508F0E1CDFE01EF57EB
:102B7000FD4F808190911F01892331F02C2D4E2D26
:102B80006D2DCE010E94E0082196EDCF8EEC99E0EC
:102B9000E9CE8CEA97E0E6CE80911E0101E1809FAC
:102BA000000D112440911D0550911E0560911F05D7
:102BB000709120058091B3039091B403A091B50367
:102BC000B091B60384179507A607B70708F0AFCDF5
:102BD0000E94F109F82E0E94F10992E5891BF0F795
:102BE000890FC82FD0E0FE01EF57FD4F80911F01E4
:102BF0009081892309F49BCD20E040E060E0F1FC66
:102C000013C00E94F109F82E0E94F109782F7695E1
:102C10002FE7720F08F47FEF6F2D809124050E943B
:102C2000680A462F282F672FCE010E94E0082091C6
:102C3000250530E1230F08F42FEF60E1822F90E0AB
:102C40000E945E0ABC0184EF91E00E94E32E809115
:102C50001D0590911E05A0911F05B0912005860FBE
:102C6000971FA11DB11D8093B3039093B403A0934C
:102C7000B503B093B6035BCD80912001882329F082
:102C800040E060E080E00E94DD0880911E0101E1EB
:102C9000809F000D112440911D0550911E056091EB
:102CA0001F05709120058091DF039091E003A091B2
:102CB000E103B091E20384179507A607B70708F070
:102CC00036CD6091220570912305809124050E94E4
:102CD000680A762E672E582E97EBE92E93E0F92E90
:102CE000CDE8D1E05E014E01670187E0482EF40196
:102CF00081914F0190E0F6012081222309F460C008
:102D0000252D472D662D0E94E008F5018785252D8C
:102D1000472D662D90E00E94E008F60181818193A5
:102D20006F014A94F1E0AF1AB1084110E0CF8F81F2
:102D300090E0F7012781222309F44DC0252D472D6E
:102D4000662D0E94E0088885252D472D662D90E090
:102D50000E94E0080E94F109837091E009F090E080
:102D6000F7019783F8E0EF0EF11C609621E0CD3D6E
:102D7000D20709F0B7CF2091250530E1230F08F4E1
:102D80002FEF60E1822F90E00E945E0ABC0188EB89
:102D90009BE00E94E32E80911D0590911E05A0915D
:102DA0001F05B0912005860F971FA11DB11D8093AF
:102DB000DF039093E003A093E103B093E203B7CC69
:102DC00020E040E060E00E94E008F501878520E017
:102DD00040E060E09FCF20E040E060E00E94E0083B
:102DE000888520E040E060E0B2CF112309F43DCCBB
:102DF000D5CD10931901832F8370809318010E9401
:102E00002B1183E042CC8091E30381110E940613D1
:102E100040911D0550911E0560911F057091200580
:102E20002FB7F8948091E5049091E604A091E7040F
:102E3000B091E8042FBF841B950BA60BB70B4097EE
:102E4000A105B10508F411CC10921A010ECCE1E2F3
:102E5000F5E085E380838091210190912201A0918A
:102E6000230181839283A3838FE784838FEF8583FC
:102E70000E9406130895AAE0B0E0E1E4F7E10C94A3
:102E80001C2F8E010F5F1F4F8AE0D8011D928A957B
:102E9000E9F74DE5E42E41E0F42ECC24C394D12C87
:102EA00088248394912C72E7A72E71E0B72EF70146
:102EB00081917F018F3F09F449C0F894E82FE29592
:102EC000EF70F0E021A18F70A40102C0440F551FE4
:102ED0008A95E2F7CA01922F982B91A392A180952F
:102EE000892382A3789400C03DE6632E31E0732EDF
:102EF000F801A60140955095D3016D913D01808167
:102F000091816F3F09F481C0262F22952F7030E008
:102F1000D90190962C9130E06F7002C035952795BD
:102F20006A95E2F720FD71C08C299D2991838083E9
:102F30003296A614B70401F7F701319780818F3FCD
:102F400011F00E94F00DB0EABA95F1F7CC0CDD1C3F
:102F5000EDE6EE16E1E0FE0609F0A9CF4AE050E00A
:102F6000B8018EE793E00E94DF307C01892B41F0AD
:102F70008AE0F801AEE7B3E001900D928A95E1F79F
:102F800010927B0310917A03112309F448C00E9428
:102F90003F062091780330917903AC01421B530B1B
:102FA0009A0190937903809378034F3F510509F07C
:102FB00078F5452B31F110927A03109277036091E6
:102FC0007C0370917D03AB01405F5F4F605A7F4F80
:102FD00090E030E0FA0170978081882321F0281773
:102FE000D0F01082912F3196E417F507A9F7AF01C1
:102FF000405F5F4F4617570769F730937A03909306
:103000007703E114F104D9F40DC0842395238ECF06
:103010002FEF30E0D0CF821B8083312FE4CFE1143B
:10302000F10439F480917703882309F44EC011111B
:1030300006C00E943F0690937903809378036091C5
:103040007C0370917D0380907A03AEE7B3E048E99A
:1030500053E0912CAA24A394B12C95E0792E0D91E4
:103060001D91FA0181919191AF0108271927FB0168
:1030700030E020E07501022E02C0EE0CFF1C0A9425
:10308000E2F76801CE20DF20C114D10451F0D080D6
:10309000D11007C070828E259F259924939488248F
:1030A000839431962F5F3F4F2031310519F7605FD0
:1030B0007F4FFA01329791838083F3E0A838BF07EE
:1030C00071F680927A0390927B0380917B032A961B
:1030D000EEE00C94382F8091720390917103892B4C
:1030E0008093D60280917503882329F10E943F06C0
:1030F0002091730330917403821B930B88389341A2
:1031000010F00E94D80F8091D60290917503892B00
:103110008093D60280911D018823E1F18091E9041A
:1031200087FF38C08EE1E8EDF2E090E08150A0F535
:1031300091110E94D80F40E250E061E573E086ED06
:1031400092E00E94DF30892B21F180E2E6EDF2E08F
:10315000A1E5B3E001900D928A95E1F7E091E004DA
:10316000F091E1043097A9F080911D01882359F076
:103170008091E90487FF07C08091D6028093D7022F
:1031800086E08093D6020280F381E02D86ED92E006
:103190000995089586E0C7CF2191222339F29F5FD8
:1031A000C5CF90E080E00E94C00690E080E00E94E1
:1031B000AA06109271030E946B1886E0E9EAF3E018
:1031C000DF011D928A95E9F71092A3031092A203E2
:1031D0001092A4030E949A0C089580932A050E94DD
:1031E000D118089580912A05982F9670963021F471
:1031F00088600E94ED180895877FFBCF21E030E0C2
:1032000001C0220F8A95EAF7209580912A05822332
:103210000E94ED1808959091500380958923809322
:103220005003282F277091F4282F082E000C330B01
:103230009217130659F09091EA0492FF07C0859502
:10324000859585950E94FE180E94EA0F0895909139
:10325000EA0492FB222720F9281769F080FB92F9F3
:103260009093EA048091E9049091EA040E94FB1192
:1032700082E00E940B19089521E030E001C0220F86
:103280008A95EAF780912A05822B0E94ED1808950D
:103290009091EA0492FF10C098E0899F9001112458
:1032A000622B609350030E943C190E943F0690934A
:1032B0004F0380934E0308950E943C190895809314
:1032C00076030E94D11808951092720380911D0117
:1032D000E8EDF2E0882361F08091E90487FF08C0FF
:1032E0008EE1DF011D928A95E9F70E94D1180895B9
:1032F00086E0F7CFAAE2B0E0E0E8F9E10C94272FEE
:1033000085E195E02091F100DC012D93CD01B5E040
:103310008D319B07B9F780911605833009F472C08F
:10332000B8F4813009F449C0823009F4B3C0809107
:10333000E80083FF96C280911505909116059A309A
:1033400008F08FC2E92FF0E0E853FE4C0C940B2FED
:103350008A3009F48EC08B3009F471C0893039F796
:1033600080911505813219F78091190590911A0500
:10337000009711F00297D9F68091E800877F80933B
:10338000E8008091E80082FF38C09091F3008091BE
:10339000F200029731F48091F100813011F0863013
:1033A00021F48091F1008093F0048091E8008B7704
:1033B0008093E8000E940505BACF80911505813AF7
:1033C00009F0B5CF8091E800877F8093E800809175
:1033D000190590911A05892B61F460E281EF94E060
:1033E00070E00E94B1058091E8008B778093E8003F
:1033F0009ECF60E090E080E0F3CF809113058111D3
:10340000C0CF95CF80911505813A09F090CF80917A
:10341000190590911A05892B09F089CF8091E80050
:10342000877F8093E8008091E80080FFFCCF809147
:103430001D018093F1008091E8008E77B9CF8091D3
:103440001505813209F073CF8091190590911A0505
:10345000892B09F06CCF8091E800877F8093E8008A
:103460000E9405058091170580931D010E94641933
:103470005ECF80911505813209F059CF8091E80027
:10348000877F8093E8000E9405058091180580934E
:10349000EF044DCF80911505813A09F048CF809116
:1034A000E800877F8093E8008091E80080FFFCCFF0
:1034B0008091EF04BECF803899F0823809F0D1C1F5
:1034C000809119058F70873008F0CBC18093E90097
:1034D0008091EB0085FB882780F91092E90006C0F7
:1034E0008091110590911205911182609091E800F0
:1034F000977F9093E8008093F1001092F100809103
:10350000E8008E77AAC1882309F498C1823009F0B7
:10351000A8C18091170581119BC1809119058F70F9
:103520002FEF280F263008F09CC18093E9002091EE
:10353000EB0020FF8DC1933031F48091EB0080626D
:103540008093EB0085C19091EB0090619093EB002C
:1035500021E030E001C0220F8A95EAF72093EA00CB
:103560001092EA008091EB008860EACF811179C166
:10357000109117051F778091E3008078812B80934D
:10358000E3008091E800877F8093E8000E940505B2
:103590008091E80080FFFCCF8091E30080688093F9
:1035A000E30082E0111183E0809313055AC1805833
:1035B000823008F056C120911705309118052C3D36
:1035C000E3E03E07A1F583E08A838AE289834FB76F
:1035D000F894DE01139620E03EE051E2E32FF0E0A4
:1035E00050935700E49120FF03C0E295EF703F5FD6
:1035F000EF708E2F90E0EA30C0F0C7968D939D93C8
:103600002F5F243159F74FBF8091E800877F809367
:10361000E8006AE270E0CE0101960E94B105809157
:10362000E8008B778093E8001CC1C096E7CF8091BB
:10363000190590911A05432F55274330510509F478
:103640004AC078F54130510509F485C08BE590E01A
:10365000E6E6F7E04230510509F003C12091E800A9
:10366000277F2093E80020911B0530911C058217CD
:10367000930708F49C0140E02115310509F070C062
:1036800041116EC08091E80082FDC9CF8091130581
:10369000882329F2853019F28091E80083FFF2CF68
:1036A000BECF4132510509F447C04232510509F0FD
:1036B000D8C08330910508F0D4C0FC01EE0FFF1F85
:1036C000EF57FE4F0190F081E02D82589E4FDC01B4
:1036D0008C9190E01DC0332721303105E9F0211590
:1036E000310579F022303105F9F02330310509F048
:1036F000B8C0E3EDF7E0E4918E2F90E0E3EDF7E062
:1037000007C0E3E2F8E0E4918E2F90E0E3E2F8E016
:10371000009709F4A6C0A2CFEDE0F8E0E4918E2F67
:1037200090E0EDE0F8E0F4CFE1EFF7E0E4918E2FE8
:1037300090E0E1EFF7E0ECCF8330910508F091C025
:10374000880F991FFC01E957FE4F0190F081E02D91
:1037500089E090E083CF82E190E0E1ECF7E07ECF7A
:1037600080911305882309F45ACF853009F457CF87
:103770008091E80083FD53CF8091E80082FD82CFE5
:103780008091E80080FF78CF9091F3008091F20063
:103790002115310519F08830910550F041E0089766
:1037A00009F040E08091E8008E778093E80064CFD4
:1037B00044914093F1003196215031090196E8CFB0
:1037C000803809F04EC08091E800877F8093E80040
:1037D000809114058093F10092CE811142C0109126
:1037E00017051230F0F58091E800877F8093E8009C
:1037F000109314050E940505112311F084E005C003
:103800008091E30087FDFACF81E08093130542E0C9
:1038100061EC81E00E94240542E261EC84E00E94B8
:10382000240542E261EC82E00E94240542E260EC61
:1038300083E00E9424058091130513C08091170531
:10384000813079F481E0933009F080E080931205B3
:103850001092E9008091E800877F8093E8000E9441
:1038600005058091E80083FF0AC08091E800877F0A
:103870008093E8008091EB0080628093EB00AA9631
:10388000E3E00C94432F0E9464192FEF84E39CE043
:10389000215080409040E1F700C0000088E19AE0AC
:1038A0000FB6F894A895809360000FBE90936000C7
:1038B000FFCF882341F080959091710389238093F5
:1038C00071030E946B180895882339F09091710359
:1038D000982B909371030E946B180895882321F010
:1038E0000E94E30F0E946B180895882339F090918D
:1038F0007203982B909372030E946B18089588238B
:1039000091F19CEF980F913A40F4682F86ED92E088
:103910000E944B060E946B18089590E2980F983011
:1039200050F4877091E001C0990F8A95EAF7892FCA
:103930000E94E30FEFCF9BE5980F933028F490E0BF
:1039400080E00E94C006089598E5980F973128F40A
:1039500090E080E00E94AA060895803F20F00E9437
:10396000C10C0E949A0C0895CF93C82F8823D9F1D7
:103970008CEF8C0F813AC8F580911D01882311F1DD
:103980008091E90487FF1EC0EC2FE695E695E69549
:10399000F0E0EA52FD4F828190E04C2F477021E029
:1039A00030E002C0220F331F4A95E2F782239323AF
:1039B000892B91F06C2F86ED92E00E944B060E94BD
:1039C0006B180AC0E8EDF2E08EED92E02191C2178B
:1039D00089F38E179F07D1F76C2F86ED92E00E9436
:1039E00075060E946B18CF91089580E28C0F883085
:1039F00068F4C77021E030E001C0220FCA95EAF7F1
:103A000080917203822B80937203EBCFEBE5EC0F76
:103A1000E33040F4F0E0E45DFE4F808190E00E94EE
:103A2000C006E1CFE8E5EC0FE73150F4F0E0EE0F2F
:103A3000FF1FE15DFE4F808191810E94AA06D3CFD6
:103A4000C03F88F28C2F0E94860D0E949A0CCBCF2B
:103A50001F93CF93DF93182FD0E0C0E0893311F488
:103A6000C0E5D0E0812F0E94B41C209739F4812F4B
:103A70000E947F1CDF91CF911F9108958FE99FE0F5
:103A80000197F1F700C000002197EFCF0F931F932C
:103A9000CF93DF93C62FD42F022FFC01828188237E
:103AA000A9F0609329050E943F0690932805809312
:103AB0002705C77081E001C0880FCA95EAF70E9408
:103AC000751CDF91CF911F910F9108958091290569
:103AD000681332C080912705909128050E94240622
:103AE000883C910548F510E21D0FCD17B9F080E232
:103AF0008C0F883040F4C77081E001C0880FCA95F0
:103B0000EAF70E946E1C183048F481E09D2F9770F0
:103B100001C0880F9A95EAF70E94751C802F0E94B9
:103B2000281D183070F6D77081E001C0880FDA9533
:103B3000EAF70E946E1CC5CFC77081E001C0880FF4
:103B4000CA95EAF7F6CFB0E0A0E0E9EAFDE10C940F
:103B5000202FEC018AE0A82E2881222309F48FC0AF
:103B60002130C9F599818A81913021F422960E94F1
:103B7000281D05C0923029F422960E94B41C21967B
:103B8000EBCF933021F422960E947F1CF8CF943023
:103B900011F02196F4CF229630E020E0AE014F5F85
:103BA0005F4F8053990B8A30910550F021503109B5
:103BB00030F38FE99FE00197F1F700C00000F6CFE6
:103BC000A29EB001A39E700D11249C01260F371FE9
:103BD0008981EA01E3CFE22FF0E0E95AF74FB49090
:103BE000822F86958695869590E0FC01E95BF74FDC
:103BF000E4902770F12C022E02C0F594E7940A9409
:103C0000E2F731E0E322FF24FC01E95CF74FC490C6
:103C1000D12C022E02C0D594C7940A94E2F731E069
:103C2000C322DD24FC01E95DF74F049110E002C0DE
:103C3000159507952A95E2F701701127E114F10413
:103C400019F081EE0E94B41CC114D10419F086EE63
:103C50000E94B41C8B2D0E94281DC114D10419F0A0
:103C600086EE0E947F1CE114F10419F081EE0E949F
:103C70007F1C0115110509F482CF8CE278CFCDB7F6
:103C8000DEB7EAE00C943C2F90E080E00E940B311C
:103C9000883E9E4F19F40E94BB12089580E008955B
:103CA00068EE7EEF90E080E00E943F3160E082E0CD
:103CB00090E00E94213160E083E090E00E94213199
:103CC0001092760360E084E090E00E94213164E08D
:103CD00082E290E00E94213160E085E090E00E9465
:103CE000213160E086E090E00E9421316FEF87E0B3
:103CF00090E00E94213140E050E0BA0188E090E07D
:103D00000E94333160E08DE090E00E94213140E07C
:103D100050E0BA0188E190E00E94333160E087E131
:103D200090E00E94213140E050E0BA018CE190E047
:103D30000E94333170E060E080E290E00E943F3109
:103D400040E050E0BA0188E190E00E94333180E029
:103D50000E94D2110E94EB1140E050E0BA018FE0C6
:103D600090E00E94333140E050E0BA0183E190E0FE
:103D70000E9433310895A5E0B0E0E1ECFEE10C943F
:103D80001E2F6C01FC0183819481892B31F080818D
:103D9000918189238F3F09F079C52596ECE00C9439
:103DA0003A2F0E945512182F682F89819A810E94FC
:103DB0002F1069817A81812F0E9438128C01F601BF
:103DC0008281882309F457C5980122513F4520314B
:103DD000310508F029C58FEF93E00E94033181116E
:103DE000A8C05EEEF52EF00E07E012E0F11036C02E
:103DF00019821A821B821C8299249A9478012FEFCF
:103E0000E21AF20AC8010E94033189831A828823C8
:103E100009F48FC0813009F081C0580132E0A30E4F
:103E2000B11CC7010E940331E82E8A83882309F45C
:103E300080C0C5010E940331F82E8FEF8E0D8330B4
:103E4000D8F4580143E0A40EB11CFB82FF2021F0FE
:103E5000CE0101960E94A31D8501D0CF0115F4E08B
:103E60001F0709F466C0C8010E940331811101C017
:103E7000FA940F5F1F4FBACF8BEF8E0D833040F552
:103E8000C8010396FB825C01FF2031F3580154E026
:103E9000A50EB11C0E9403318C838823E9F20B81AB
:103EA0001C8101308FEF180710F0102F002796E0CB
:103EB000E91651F0E7E0EE1619F0C8010E948427D8
:103EC000C8010E944C27C8CFC8010E948427C4CFD4
:103ED000F4E0EF12C1CF580124E0A20EB11CC801DA
:103EE00003960E940331FF2021F1882311F18150B4
:103EF000990B989E9001999E300D11244F2D4150A1
:103F0000550BCA01820F931F019708F4A5CFEFE963
:103F1000FFE03197F1F700C00000F6CFCE01019627
:103F20000E94A31D570198CF81E00E943C190E9476
:103F3000F21880915003877009F42FCFF601828127
:103F4000882309F42ACF8091EA0482FF26CF82E0F9
:103F50000E940B1922CF81E00E94FE18E8CF82E078
:103F6000E4CF053FECE51E0709F45AC008F454C03D
:103F7000063F2CE5120709F457C0882309F497C4BB
:103F80001092290503303DE5130708F054C00A3F9D
:103F90004CE5140730F4C80182509C45449708F062
:103FA00055C00E94D4129093EA048093E904023130
:103FB000ECE51E0709F455C108F0A1C009302CE555
:103FC000120709F428C108F070C005304CE5140749
:103FD00009F415C108F057C003308CE5180709F43F
:103FE00006C108F008C18091E90481600230ECE567
:103FF0001E0709F481C08091E9049091EA040E94AF
:10400000FB110E94641995CF27E245EE65EE2FC49F
:1040100026E241EE60EE2BC427E245EE64EE27C4B3
:1040200026E241EE62EE23C427E245EE66EE1FC4AF
:1040300028E241E0EBCF053A5DE5150709F4B1CF81
:10404000E0F401369DE5190709F4ABCF0631ECE544
:104050001E0709F03AC4809172038A7A91E009F44C
:1040600090E09093F60269E2811165E386ED92E0BB
:104070000E9475060E946B185CCFC8018D5A9D4541
:10408000039720F78ECF8091E90480620730FCE52A
:104090001F0791F18091E904806108302CE5120737
:1040A00058F18091E904806427C00D303CE5130786
:1040B00009F4BFC068F48091E9048E7F0B305CE5A1
:1040C0001507D1F008F4ADC08091E9048D7F14C0CC
:1040D0000F309CE5190709F4BCC008F4AEC00031EC
:1040E000FCE51F0709F4B9C08091E9048F7B013119
:1040F0002CE5120709F07FCF8093E9047CCF0F3FB6
:104100003CE5130709F4B7C0A8F50A3F5CE51507BD
:1041100009F479C0C0F404319CE5190709F4B9C069
:1041200008F4A5C00531FCE51F0709F064CF8091B4
:10413000E90482FB992790F921E0922790FB82F90C
:1041400090FB83F9D9CF0C3F2CE5120709F479C015
:1041500008F45DC00D3F4CE5140709F476C080916A
:10416000EA0483600E3F5CE5150709F044CF8093B5
:10417000EA0441CF01368DE5180709F495C090F4A3
:104180000130EDE51E0709F48DC008F478C060E049
:1041900002302DE5120709F02ECF8EE090E00E944C
:1041A000213129CF0D3A3DE51307E9F060F49091F4
:1041B000E904892F8E7F90FF8160053A5DE5150740
:1041C00009F49ACF18CF0E3A8DE5180771F10F3A1E
:1041D0009DE5190709F00FCF9091EA04892F877F99
:1041E00093FF8860C4CF8091EA048860C0CF80913B
:1041F000E904826081CF8091E90484607DCF809161
:10420000E904886079CF8091EA048160B0CF809121
:10421000EA048260ACCF0E9464198091E90480684E
:104220006BCF8091E9048C6067CF8091EA04877F2F
:104230009ECF8091E9048B7F5FCF8091E904877FD7
:104240005BCF8091EA048E7F92CF8091EA048D7FCC
:104250008ECF8091E9048F7E4FCF8091E9048F7DCE
:104260004BCF0E9464198091E9048F7745CF8091EC
:10427000E904837F41CF8091EA048C7F78CF8091DD
:10428000EA04982F909591708E7F892B90FB81F98D
:104290006ECF0E9464199091E904892F97FB87F9EA
:1042A00080582ACF61E079CF9091E904892F8F7EE1
:1042B00094FF806121CF45E957E060EA77E00E94F2
:1042C000E30637CE40EA57E065E977E0F8CF46E607
:1042D00057E061E777E0F3CF41E757E066E677E044
:1042E000EECF4AE457E068E577E0E9CF48E557E0EC
:1042F0006AE477E0E4CF4CE357E06EE277E0DFCFAB
:104300004FEF56E06DE077E0DACF4DE057E06FEF2A
:1043100076E0D5CF61E081E00E947C070ACE61E0C3
:104320008DE0FACF0E946419FFEF24E33CE0F150E6
:1043300020403040E1F700C000000E941306809149
:10434000EA0482FB882780F991E089270E942719D7
:10435000F601828100811181882309F445C0C801DA
:104360000E945512F82E682FC8010E942F10B80124
:104370008F2D0E9438120E944A0E8C01882EF60161
:10438000E280B580B2943FE0B32280915003877001
:10439000C1F0AE2CEE20B1F0812F807F803421F06F
:1043A00080E2800F883068F08091EA0482FF09C0C3
:1043B00082E00E940B19809150038770AA24A39475
:1043C0008111A12C912E92942FE09222FBE0F915FD
:1043D00008F476C0E92DF0E0EE52FE4C0C940B2F61
:1043E00081E0B4CF80E0B2CFC8010E94FB0FF82E6D
:1043F000BECF212F2F70F22E107F19F0F29490EF84
:10440000F922EE20B9F0FF2069F080E2800F8830B9
:1044100010F0811009C080917203F82AF0927203A3
:104420000E946B18802F4AC080917103F82AF09285
:104430007103F6CF802F0E947F1CFF2009F440C03B
:10444000005E083010F0811004C08F2D0E94E30F31
:1044500006C0F09480917103F822F09271030E94DB
:104460006B182EC0312F3F70F32E107F103219F0D1
:10447000F29480EFF822882089F041E0841609F454
:1044800091C0EE2009F49AC0BB2009F467C0F60180
:10449000858180FFC7CF8F70858360C08091EA04DB
:1044A00082FD35C0EE2069F1FF2039F08091720362
:1044B000F82AF09272030E946B1880E00E94B41CEC
:1044C000292D2850330B2430310510F40E94D606D4
:1044D000AA2009F462CC8091500380FD5ECCF601E5
:1044E00012828595859585950E943C19C6010E948A
:1044F000BB1E809150038595859585950E94FE1879
:104500004CCC80E00E947F1CFF20D1F29ECFEE2099
:1045100049F1B11004C0809175038F2920C051E08A
:10452000B51210C082FFCCCF80917503F82AF8161F
:1045300039F20E943F069093740380937303F092C4
:104540007503BECF85E0B812E6CF0E94D80F9091D8
:10455000F7028F2D892B89138093F7028F2D0E94EC
:10456000751CAECFB11003C00E94D80F12C091E0ED
:10457000B91213C0809172038F2109F4A1CF0E9458
:10458000D80F9091F7028F2D8095892389138093FE
:10459000F7028F2D0E946E1C93CFE5E0BE1609F442
:1045A0008FCFE2CFEE2029F0F5E0FB1508F488CF9D
:1045B000D5CF24E02B1508F483CFEBCFBB2049F3F4
:1045C000F9E38F1209C02FEF37EE43E0215030405E
:1045D0004040E1F700C00000802F0E947F1C70CF98
:1045E000812F86958695837061F0813009F068CFC0
:1045F000C8019370E11002C090E080E00E94AA061A
:104600005FCFC8019370E11002C090E080E00E948B
:10461000C00656CF802FEE2029F00E94860D0E9402
:104620009A0C4ECF0E94C10CFACF812F837089F56E
:10463000E11046CF402F429546954770440F440FF6
:10464000802F8F70042E01C0880F0A94EAF7202F64
:10465000207104FF07C02FE030E001C0220F4A950F
:10466000EAF72095169516951370123069F050F4FC
:1046700030917603113029F0822B83230E945F1939
:104680001FCF832B822BFACF282B80917603822792
:10469000F5CF8695EE2011F0812F8170882309F4E3
:1046A0000FCF402F429546954770440F440F802FFF
:1046B0008F70042E01C0880F0A94EAF7202F207112
:1046C00004FF07C02FE030E001C0220F4A95EAF74F
:1046D0002095169516951370123069F050F43091AC
:1046E0002A05113029F0822B83230E94ED18E8CE91
:1046F000832B822BFACF282B80912A058227F5CF96
:104700001F70EE2029F0812F0E943C19802F27CFA7
:10471000802F0E946E1C812F0E94FE18D1CE802F08
:1047200052EF8516B1F1581570F090EF8916D1F05F
:10473000E1EF8E1691F0EE2009F466C0B11072CE52
:10474000812F8F712AC0F3EF8F1651F124EF82125F
:10475000F2CF8091EA0482FD2FC0812F8F71EE206D
:10476000D9F21BC0EE2081F034E03B1508F4A8CE4E
:104770001F7181E090E0012E01C0880F0A94EAF7D2
:1047800090912A058927B1CF45E04B1508F498CEC2
:10479000EFCF812F8F71E110BFCF0E943C1990CED7
:1047A00080E0EE2009F4A1CF1F7181E0012E01C04D
:1047B000880F0A94EAF799CFEE20C9F08091500350
:1047C0008770843041F40E94EA0F812F8F710E941C
:1047D000FE18A12C75CE54E05B15D8F31F71812F04
:1047E0000E943C1963E0812F0E944819F2CF84E0B7
:1047F0008B1530F40E94EA0F64E0812F8F71F4CFA3
:1048000081E00E940B19E5CFBB2059F0893309F0F4
:10481000E3CE9FEFE7EEF3E09150E040F040E1F7A8
:10482000D9CE812F8F7178CF0031FFE51F0709F4B2
:104830007BCB01312FE5120709F491CB033F2CE527
:10484000120709F4E5CB08F08CCB083D4CE51407C2
:1048500009F4DACB093D5CE5150709F4E9CB073D1E
:104860009CE5190709F089CB26E241EE61EEC6010D
:104870000E94461D5ECB00313FE5130709F46BCB68
:1048800001314FE51407D1F682E066CB85E0DE0109
:10489000119601900D928A95E1F7F60122818981A6
:1048A0009A8121117ECA0E94FB0F182F82CA0631FD
:1048B000FCE51F0741F58091F60269E2811165E38D
:1048C00086ED92E00E944B06D5CB0A352DE5120706
:1048D00009F486CD68F401154CE5140709F422CDDE
:1048E0000E3D1C4509F034CD0E94501E0E94431C11
:1048F0000C358DE5180709F422CD08F473CD073A7D
:104900001D45A1F325CD8091720382720A3CFCE51E
:104910001F0709F4F0CCB0F5053C3CE5130709F49A
:10492000D6CCD0F4033C5CE5150709F4C4CC08F000
:10493000C9CC023CECE51E0709F00ACD80912105A7
:1049400091E089278093210510921A018091E30359
:1049500081608093E303EDCA073CFCE51F0709F47F
:10496000C0CC08F4B9CC083C3CE5130709F4BECC34
:10497000093C4CE5140709F0EBCC4EE257E06CE340
:1049800077E09DCC0F3C5CE5150709F4C8CCA0F49A
:104990000C3CECE51E0709F4B8CC08F4B1CC0D3C96
:1049A0002CE5120709F4B6CC61E085E00E3C3CE54D
:1049B000130709F4B1CCCCCC063D4CE5140740F408
:1049C00061E082E1013D5CE5150708F4A5CCB1CAC0
:1049D0000D35100709F4ADCABBCC1F93CF93DF93FD
:1049E00080911B03807F09F049C0809118038823C0
:1049F00009F444C080914D03D0911C0360911603CB
:104A000070911703A0911903B0911A03C62FC72301
:104A100016E0D81799F190E0109711F0CF3F19F4F4
:104A200001968770F6CF189F9001199F300D1124C1
:104A3000F901E35EFC4F41814713F2CF40814613F9
:104A4000EFCF42814111ECCF438154814A1B5B0B74
:104A5000483C510528F780911B038F70806180933B
:104A60001B03F901EE5DFC4F80818F7080618083B4
:104A700086E193E00E94BB1E0E94F10FDF91CF916F
:104A80001F910895A1E1B0E0E8E4F5E20C94202F35
:104A90008C0185E0F801DE011D9601900D928A954A
:104AA000E1F7F801E28086E1A82E83E0B82E60915C
:104AB000190370911A036115710509F426C19091CB
:104AC000160340911703892F84238F3F09F41DC1DA
:104AD00020813181C380D480F0901803F601E61B59
:104AE000F70BFF2009F4DCC080911B03582F507F87
:104AF000E83CF10508F09FC051116BC0FE2C431338
:104B000014C0921312C0E11010C08F7080618093A6
:104B10001B03C5010E94BB1E80911B03F801858306
:104B20008F2D6196EAE00C943C2FC114D10429F03A
:104B3000822F83238F3F09F003C180E0F82FF170AB
:104B4000DF2E80FF3CC080914D0340911C0356E056
:104B5000841315C02D873E878D859E850E94841203
:104B6000292F22952F702230F0F0243018F59F70F5
:104B7000F1F0F8019581907FD1F4D12C1EC090E026
:104B8000589FF001599FF00D1124E35EFC4F6181A5
:104B9000361306C06081261303C06281E6120FC07F
:104BA00001968770D5CF9F7011F0882331F3805E16
:104BB000883018F3C8010E94BB1EFD2CB1CFEE2037
:104BC00009F4AECF80911B03816080931B03F12C0D
:104BD000A7CF431306C0921304C0F801EE2009F4D6
:104BE00079C0C8010E949112882309F1EE20F9F0E2
:104BF00080911B03803270F02091160330911703CF
:104C000038872F831986DB86CA868C87CE01079664
:104C10000E94BB1E86E0F801A6E1B3E001900D9270
:104C20008A95E1F70E94ED24FF24F39479CFC8011F
:104C30000E94BB1EF9CF51110AC086E193E00E9489
:104C4000BB1E86E0F50111928A95E9F7C0CF4313A8
:104C50000FC092130DC0E1100BC0F8018583C8018D
:104C60000E94BB1E86E0F50111928A95E9F758CFA4
:104C7000C8010E9491128823D1F2EE20C1F28091E6
:104C80001B03803238F220911603309117033A83C8
:104C900029831B82DD82CC828E83CE010196B8CF20
:104CA000E83CF105F8F6FE2CEE2009F243131FC094
:104CB00092131DC080911B0380FD10C0982F907F20
:104CC00069F0F8018583903F31F0982F907F905FD5
:104CD0008F70892B8583C8010E94BB1E86E0F80176
:104CE000A6E1B3E001900D928A95E1F719CFC801D2
:104CF0000E94911281118ECF80911B03816080935D
:104D00001B03C8010E94BB1E0BCFEE2009F48FCFFE
:104D1000C8010E949112F82E882309F488CF86E0FA
:104D2000F801A6E1B3E001900D928A95E1F7809138
:104D30001603909117030E9484120E94ED24F0CE76
:104D400081E08E25FBCEA7E1B0E0E9EAF6E20C9423
:104D5000272F4B8B5C8B6D8B7E8B8F8B6111109211
:104D600071031A8A198A85E0FE017396DE011D9689
:104D700001900D928A95E1F78091EA0482FF1CC0B0
:104D80000E943F0620914E0330914F03821B930BEC
:104D90008838934120F08091500382FF79C00E94AF
:104DA0003F062091730330917403821B930B883864
:104DB000934110F00E94D80F86E0FE013D96DE017F
:104DC000179601900D928A95E1F7CE0107960E9401
:104DD0004225882359F016E080914D0390911C03E1
:104DE000891343C06796E3E00C94432F86E0FE01ED
:104DF0003796DE01119601900D928A95E1F78A852A
:104E00009B85892B41F38F81988589238F3F19F3E7
:104E100020911C0330E0C9010196877099274091C9
:104E20004D034817190671F40E94641910921C036F
:104E300010924D0386E0E6E1F3E0DF011D928A95D2
:104E4000E9F7C9CF96E0929FD001939FB00D11244E
:104E5000A35EBC4FFE01319601900D929A95E1F749
:104E600080931C030E94F10FB6CF819FC0011124D3
:104E7000835E9C4F0E944225882309F4B3CF809122
:104E80004D0390E001968770992780934D03A4CF3E
:104E900082E00E940B1983CFA5E0B0E0E2E5F7E2E3
:104EA0000C94262F8C019093DB048093DA04011577
:104EB00080E21807C0F4802F0E947F1CC8010E9466
:104EC00065109801205E31092830310518F0011570
:104ED000110531F40E946E1C2596E4E00C94422FDB
:104EE0000E94591CF9CF80EF89838A831B820E941C
:104EF0003F068160782F9D838C8349815A816B8125
:104F00008D810E94A326E8CFA5E0B0E0EAE8F7E2B1
:104F10000C94262F8C019093DB048093DA04011506
:104F200080E21807C0F4C8010E9465109801205E55
:104F300031092830310518F00115110549F40E9496
:104F4000751C802F0E94B41C2596E4E00C94422F1F
:104F50000E94641CF6CF80EF89838A8381E08B8373
:104F60000E943F068160782F9D838C8349815A81FE
:104F70006B818D810E94A326E7CF1F920F920FB6FF
:104F80000F9211242F933F934F935F936F937F93CF
:104F90008F939F93AF93BF93CF93DF93EF93FF9341
:104FA000D091E900DF708091EC00C82FC17080FDC6
:104FB000C0E81092E9008091F000877F8093F000B4
:104FC00078940E947A191092E9008091F00088602C
:104FD0008093F000CD2BCF70C093E900FF91EF914B
:104FE000DF91CF91BF91AF919F918F917F916F9101
:104FF0005F914F913F912F910F900FBE0F901F9097
:1050000018951F920F920FB60F9211242F933F9372
:105010004F935F936F937F938F939F93AF93BF93C0
:10502000EF93FF938091E10082FF09C08091E2003D
:1050300082FF05C08091E1008B7F8093E100809129
:10504000DA0080FF24C08091D80080FF20C08091CA
:10505000DA008E7F8093DA008091D90080FF9DC0B6
:1050600080E189BD82E189BD09B400FEFDCF81E008
:10507000809313058091EE04811109C00E948B0476
:105080000E9456058091E20084608093E200809146
:10509000E10080FF17C08091E20080FF13C0809183
:1050A000E2008E7F8093E2008091E2008061809335
:1050B000E2008091D80080628093D80019BC85E01E
:1050C000809313058091E10084FF2BC08091E20062
:1050D00084FF27C080E189BD82E189BD89B5982F11
:1050E000917080FFFBCF8091D8008F7D8093D80096
:1050F0008091E1008F7E8093E1008091E2008F7EBD
:105100008093E2008091E20081608093E2008091D0
:105110001405882309F447C084E080931305809127
:1051200013058091E10083FF27C08091E20083FF97
:1051300023C08091E100877F8093E10082E080932B
:105140001305109214058091E1008E7F8093E10099
:105150008091E2008E7F8093E2008091E200806186
:105160008093E20042E060E080E00E9424058091AC
:10517000F00088608093F000FF91EF91BF91AF91B4
:105180009F918F917F916F915F914F913F912F915F
:105190000F900FBE0F901F90189519BC1092130519
:1051A0001092EE0474CF8091E30087FD93E090931A
:1051B0001305B5CF78941F921FB61F9211248F93B9
:1051C0009F93AF93BF938091E5049091E604A091E3
:1051D000E704B091E8040196A11DB11D8093E50498
:1051E0009093E604A093E704B093E804BF91AF91D5
:1051F0009F918F911F901FBE1F9018951F921FB6F1
:105200001F9211248F939F93AF93BF938091E404D7
:10521000811113C08091E5049091E604A091E70408
:10522000B091E8044196A11DB11D8093E5049093CF
:10523000E604A093E704B093E804BF91AF919F9177
:105240008F911F901FBE1F901895CDB7DEB7E297C4
:105250000FB6F894DEBF0FBECDBF85B7806885BF9F
:1052600085B7806885BF84B7877F84BF0FB6F89401
:10527000A895809160008861809360001092600022
:105280000FBE80E890E00FB6F89480936100909391
:1052900061000FBE8EEE9DE09093D5028093D40204
:1052A0000E948B040E9456058091E20084608093E6
:1052B000E2007894809113058823A1F01091E90011
:1052C0001F709091EC00892F817090FD80E8182B61
:1052D0001092E9008091E80083FD0E947A191F7006
:1052E0001093E90082E084BD93E095BD9AEF97BDED
:1052F00080936E000E94BB12811102C00E94EB11CC
:105300000DE511E0D8018D918D018F3F11F00E94C4
:10531000F00DB1E00D361B07A9F70DE611E0B2E77D
:10532000EB2EB1E0FB2EF80181918F018F3F11F040
:105330000E94F00DE016F106B1F78AE0E8E9F3E02B
:10534000DF01282F1D922A95E9F7EEE7F3E0DF0150
:105350001D928A95E9F780E590E00E94B42FAC0198
:1053600090937D0380937C0330E020E0FA01E20F0C
:10537000F31F90E111929150E9F7205F3F4F2035E4
:105380003105A1F70E94441E811102C00E94501EE7
:1053900082E090E00E94033180938A030E94D4123D
:1053A0009093EA048093E9040E943B17EFE3FCE941
:1053B0003197F1F700C000000E943B1780919803DD
:1053C00080FF08C06FEF7FEF90E080E00E943F31E8
:1053D0000E94130683E090E00E9403310E945F194F
:1053E0000E94441E811104C00E94501E0E94271773
:1053F00046E050E06CE170E081E295E00E94F3301D
:105400001092E303809121058C7F11F40E942717ED
:105410008091E90480688093E9048091E904909187
:10542000EA040E94FB118AE091E09093E1048093EA
:10543000E004A0E42A2E552453948E010F5F1F4FE1
:1054400080911305E0E1EE2EF2E1FF2E853009F4A4
:1054500090C00E943B176BE8862E63E0962E78E999
:10546000672E73E0772ED301F401219131918D9154
:105470009D9143E0E539F40709F485C02817390701
:10548000A1F3412CD301ED90FD903D01F401A190D9
:10549000B1904F01AE14BF0459F1AE24BF24312C9A
:1054A000CC24C394D12CC5018C219D21892BB1F032
:1054B0003EA64FA621E0C7018C219D21892B09F42E
:1054C00020E028AB0E943F068160782F9AAB89AB21
:1054D0004EA55FA568A98AA90E94A3263394CC0C87
:1054E000DD1CF0E13F12DFCFF4013297F182E08260
:1054F000439425E04212C6CF0E94330666C08091D5
:105500001305843029F10E9411131092E40488E1FC
:1055100090E00FB6F894A895809360000FBE20929B
:10552000600083B7817F846083BF83B7816083BF5E
:105530007894889583B78E7F83BF0FB6F894A8952B
:1055400080916000886180936000109260000FBEBF
:1055500080911205882369F00E943B17E8E9F3E087
:1055600081919191892B09F0F9C393E0E23AF9070F
:10557000B9F780911305853009F4C1CF0E946419F1
:105580000E94D60666CF2817390709F07ACF0E9405
:105590003F067C018091880390918903E816F90603
:1055A000A1F08FEF89A78AA71BA60E943F06816002
:1055B000782F9DA78CA749A55AA56BA58DA50E94FC
:1055C000A326F0928903E09288030E94111386E0DB
:1055D000E9EAF3E0D80101900D928A95E1F7109283
:1055E000AB031092AC031092AD031092AE038B810B
:1055F0009C81892B09F44AC08091A7039091A8034C
:105600000E9424069C019091A303992309F4CAC324
:1056100025313105D8F19F3F19F09F5F9093A30387
:10562000FB80FF2059F00E94660D9FEF1F140CF4C1
:1056300091E0899F802D11248093AB03FC80FF2093
:1056400059F00E94660D9FEF1F140CF491E0899FA2
:10565000802D11248093AC033091AB033323B1F040
:105660002091AC03222391F045EB3403C0011124B7
:10567000992309F4C0C09093AB0345EB2403900138
:105680001124332309F4BAC03093AC038D819E8179
:10569000892B09F44AC08091A5039091A6030E942A
:1056A00024069C019091A203992309F476C3213525
:1056B0003105D8F19F3F19F09F5F9093A203FD80C1
:1056C000FF2059F00E94440D9FEF1F140CF491E04D
:1056D000899F802D11248093AD03FE80FF2059F017
:1056E0000E94440D9FEF1F140CF491E0899F802DC0
:1056F00011248093AE033091AD033323B1F0209198
:10570000AE03222391F045EB3403C0011124992309
:1057100009F477C09093AD0345EB24039001112465
:10572000332309F471C03093AE0346E050E0B80172
:1057300089EA93E00E94DF30892B61F48091AB030A
:105740009091AC03892B9091AD03892B9091AE037E
:10575000892B11F00E949A0C86E0F801A9EAB3E0C7
:1057600001900D928A95E1F70E94D60690919503DB
:10577000891721F0809395030E94330680911305C9
:10578000843009F05DCE83E08093E9008091E800E9
:1057900082FF56CE8091E80090E085FF09C00E940C
:1057A000AA0430E2E32EF12C68018823C9F191E0CC
:1057B0008091E8008B778093E800992309F440CE2C
:1057C000E090DC04F090DD048981E114F104B1F192
:1057D0008E3F09F0BBC08A81833020F08550833032
:1057E00008F0B4C0EA81EE3008F0B0C0F0E0E25258
:1057F000FE4C0C940B2F5092AB033FCF5092AC0356
:1058000045CF5092AD0388CF5092AE038ECF80919A
:10581000F100D6018D936D01B1E0EB1AF10839F278
:105820008091E80085FDF3CF8091E8008B7780932D
:10583000E8000E94AA04882399F3B9CF893009F4BB
:105840006CC128F5843009F4EDC058F4823009F4B5
:105850006CC008F0D8C0813009F463C08FEF898331
:1058600075C0863009F4F4C008F4E7C0873009F445
:10587000F2C0883099F78A81813809F439C108F07B
:105880002BC1803809F062C0809124054CC0803162
:1058900009F473C1D0F58D3009F442C128F48C307D
:1058A000E9F680E18A8352C08E3009F43CC18F3022
:1058B000A9F680911B0190911C01892B09F446C027
:1058C000CC80D12C4DE1C416D10408F03FC0EA8051
:1058D000FB80FE24EF24FE245801CE0CDF1CC70100
:1058E000895F9D4FCE14DF0489F1A9EFEA16A1E08C
:1058F000FA0620F4F50164810E942131FFEFAF1A0E
:10590000BF0A2FEFE21AF20AEACF823109F43AC154
:1059100008F436C1833109F45EC18E3F09F09ECF91
:1059200061CF1A8289E08B8311C08A81823009F4A9
:105930002BC28330A1F1813009F090CF0E94330651
:105940000E94112F6B837C838D839E83809113052E
:10595000843009F075CDF090E900BF2DBF70FB2EAB
:105960009091EC00892F817090FD80E8F82A82E008
:105970008093E9008091E80080FF0CC050E040E097
:1059800060E270E0C8010E94DB048091E8008E773D
:105990008093E8008F2D8F708093E90051CD809126
:1059A0001B0190911C01892B89F2809198039091A1
:1059B00099039827892798279C838B8380919A0342
:1059C00090919B039827892798279E838D838091A8
:1059D0009C0390919D0398278927982798878F8308
:1059E00080919E0390919F039827892798279A87F3
:1059F00089878091A0039091A103982789279827F0
:105A00009C878B87A3CF8A81823009F027CF6B8157
:105A10007C818D819E810E94112F86E290E00E9400
:105A2000213194CF4C816B818A810E940912982781
:105A3000892798279E838D8389CF2D813E813227A8
:105A4000232732274C816B818A810E9462117ECF8D
:105A50000E9488117BCF8A818138C9F068F4803830
:105A600009F074CF8091220520E04B8160912305DD
:105A700090E00E941B076ACF823819F1833809F041
:105A800065CF8B8120E0409124056C81F1CF60E0EF
:105A90008B810E947C079B8180912105911109C017
:105AA000982F937011F010921A018C7F809321052A
:105AB0004DCF982F937011F410921A018C7F816052
:105AC000F5CFEB818FE7E43020F4F0E0EE58FE4FA5
:105AD0008081809325053ACF823879F0833809F0A8
